{
  "contractName": "Airdrop",
  "abi": [
    {
      "inputs": [
        {
          "internalType": "contract IERC20",
          "name": "_airdrop",
          "type": "address"
        }
      ],
      "stateMutability": "nonpayable",
      "type": "constructor"
    },
    {
      "inputs": [],
      "name": "claimAssignedAmount",
      "outputs": [],
      "stateMutability": "nonpayable",
      "type": "function"
    },
    {
      "inputs": [
        {
          "internalType": "uint256",
          "name": "_portionTokens",
          "type": "uint256"
        }
      ],
      "name": "withdrawPortion",
      "outputs": [],
      "stateMutability": "nonpayable",
      "type": "function"
    }
  ],
  "bytecode": "0x60806040523480156200001157600080fd5b50604051620010d6380380620010d683398181016040528101906200003791906200013d565b80600360006101000a81548173ffffffffffffffffffffffffffffffffffffffff021916908373ffffffffffffffffffffffffffffffffffffffff160217905550336000806101000a81548173ffffffffffffffffffffffffffffffffffffffff021916908373ffffffffffffffffffffffffffffffffffffffff160217905550506200016f565b600080fd5b600073ffffffffffffffffffffffffffffffffffffffff82169050919050565b6000620000f182620000c4565b9050919050565b60006200010582620000e4565b9050919050565b6200011781620000f8565b81146200012357600080fd5b50565b60008151905062000137816200010c565b92915050565b600060208284031215620001565762000155620000bf565b5b6000620001668482850162000126565b91505092915050565b610f57806200017f6000396000f3fe608060405234801561001057600080fd5b50600436106100365760003560e01c806386c344011461003b578063d43fef2614610057575b600080fd5b61005560048036038101906100509190610b3b565b610061565b005b61005f61062f565b005b60001515600260003373ffffffffffffffffffffffffffffffffffffffff1673ffffffffffffffffffffffffffffffffffffffff16815260200190815260200160002060009054906101000a900460ff16151514156100f5576040517f08c379a00000000000000000000000000000000000000000000000000000000081526004016100ec90610bc5565b60405180910390fd5b60011515600260003373ffffffffffffffffffffffffffffffffffffffff1673ffffffffffffffffffffffffffffffffffffffff16815260200190815260200160002060009054906101000a900460ff16151514610294576001600260003373ffffffffffffffffffffffffffffffffffffffff1673ffffffffffffffffffffffffffffffffffffffff16815260200190815260200160002060006101000a81548160ff021916908315150217905550600360009054906101000a900473ffffffffffffffffffffffffffffffffffffffff1673ffffffffffffffffffffffffffffffffffffffff166370a08231336040518263ffffffff1660e01b81526004016102009190610c26565b60206040518083038186803b15801561021857600080fd5b505afa15801561022c573d6000803e3d6000fd5b505050506040513d601f19601f820116820180604052508101906102509190610c56565b600160003373ffffffffffffffffffffffffffffffffffffffff1673ffffffffffffffffffffffffffffffffffffffff168152602001908152602001600020819055505b80600160003373ffffffffffffffffffffffffffffffffffffffff1673ffffffffffffffffffffffffffffffffffffffff168152602001908152602001600020541015610316576040517f08c379a000000000000000000000000000000000000000000000000000000000815260040161030d90610d1b565b60405180910390fd5b60006103ec600360009054906101000a900473ffffffffffffffffffffffffffffffffffffffff1673ffffffffffffffffffffffffffffffffffffffff166370a0823160008054906101000a900473ffffffffffffffffffffffffffffffffffffffff166040518263ffffffff1660e01b81526004016103969190610c26565b60206040518083038186803b1580156103ae57600080fd5b505afa1580156103c2573d6000803e3d6000fd5b505050506040513d601f19601f820116820180604052508101906103e69190610c56565b83610ad1565b9050600360009054906101000a900473ffffffffffffffffffffffffffffffffffffffff1673ffffffffffffffffffffffffffffffffffffffff166323b872dd60008054906101000a900473ffffffffffffffffffffffffffffffffffffffff1633846040518463ffffffff1660e01b815260040161046d93929190610d4a565b602060405180830381600087803b15801561048757600080fd5b505af115801561049b573d6000803e3d6000fd5b505050506040513d601f19601f820116820180604052508101906104bf9190610db9565b6104fe576040517f08c379a00000000000000000000000000000000000000000000000000000000081526004016104f590610e32565b60405180910390fd5b610547600160003373ffffffffffffffffffffffffffffffffffffffff1673ffffffffffffffffffffffffffffffffffffffff1681526020019081526020016000205482610aea565b600160003373ffffffffffffffffffffffffffffffffffffffff1673ffffffffffffffffffffffffffffffffffffffff168152602001908152602001600020819055506000600160003373ffffffffffffffffffffffffffffffffffffffff1673ffffffffffffffffffffffffffffffffffffffff16815260200190815260200160002054141561062b576000600260003373ffffffffffffffffffffffffffffffffffffffff1673ffffffffffffffffffffffffffffffffffffffff16815260200190815260200160002060006101000a81548160ff0219169083151502179055505b5050565b60001515600260003373ffffffffffffffffffffffffffffffffffffffff1673ffffffffffffffffffffffffffffffffffffffff16815260200190815260200160002060009054906101000a900460ff16151514156106c3576040517f08c379a00000000000000000000000000000000000000000000000000000000081526004016106ba90610bc5565b60405180910390fd5b60011515600260003373ffffffffffffffffffffffffffffffffffffffff1673ffffffffffffffffffffffffffffffffffffffff16815260200190815260200160002060009054906101000a900460ff1615151461080a57600360009054906101000a900473ffffffffffffffffffffffffffffffffffffffff1673ffffffffffffffffffffffffffffffffffffffff166370a08231336040518263ffffffff1660e01b81526004016107769190610c26565b60206040518083038186803b15801561078e57600080fd5b505afa1580156107a2573d6000803e3d6000fd5b505050506040513d601f19601f820116820180604052508101906107c69190610c56565b600160003373ffffffffffffffffffffffffffffffffffffffff1673ffffffffffffffffffffffffffffffffffffffff168152602001908152602001600020819055505b600061091f600160003373ffffffffffffffffffffffffffffffffffffffff1673ffffffffffffffffffffffffffffffffffffffff16815260200190815260200160002054600360009054906101000a900473ffffffffffffffffffffffffffffffffffffffff1673ffffffffffffffffffffffffffffffffffffffff166370a0823160008054906101000a900473ffffffffffffffffffffffffffffffffffffffff166040518263ffffffff1660e01b81526004016108ca9190610c26565b60206040518083038186803b1580156108e257600080fd5b505afa1580156108f6573d6000803e3d6000fd5b505050506040513d601f19601f8201168201806040525081019061091a9190610c56565b610ad1565b9050600360009054906101000a900473ffffffffffffffffffffffffffffffffffffffff1673ffffffffffffffffffffffffffffffffffffffff166323b872dd60008054906101000a900473ffffffffffffffffffffffffffffffffffffffff1633846040518463ffffffff1660e01b81526004016109a093929190610d4a565b602060405180830381600087803b1580156109ba57600080fd5b505af11580156109ce573d6000803e3d6000fd5b505050506040513d601f19601f820116820180604052508101906109f29190610db9565b610a31576040517f08c379a0000000000000000000000000000000000000000000000000000000008152600401610a2890610e9e565b60405180910390fd5b6000600160003373ffffffffffffffffffffffffffffffffffffffff1673ffffffffffffffffffffffffffffffffffffffff168152602001908152602001600020819055506000600260003373ffffffffffffffffffffffffffffffffffffffff1673ffffffffffffffffffffffffffffffffffffffff16815260200190815260200160002060006101000a81548160ff02191690831515021790555050565b6000818310610ae05781610ae2565b825b905092915050565b60008183610af89190610eed565b905092915050565b600080fd5b6000819050919050565b610b1881610b05565b8114610b2357600080fd5b50565b600081359050610b3581610b0f565b92915050565b600060208284031215610b5157610b50610b00565b5b6000610b5f84828501610b26565b91505092915050565b600082825260208201905092915050565b7f416c726561647920636c61696d2e000000000000000000000000000000000000600082015250565b6000610baf600e83610b68565b9150610bba82610b79565b602082019050919050565b60006020820190508181036000830152610bde81610ba2565b9050919050565b600073ffffffffffffffffffffffffffffffffffffffff82169050919050565b6000610c1082610be5565b9050919050565b610c2081610c05565b82525050565b6000602082019050610c3b6000830184610c17565b92915050565b600081519050610c5081610b0f565b92915050565b600060208284031215610c6c57610c6b610b00565b5b6000610c7a84828501610c41565b91505092915050565b7f54686520706f7274696f6e206f66207573657220746f6b656e732073686f756c60008201527f6420626520657175616c206f7220736d616c6c6572207468616e20636c61696d60208201527f61626c6520746f6b656e732e0000000000000000000000000000000000000000604082015250565b6000610d05604c83610b68565b9150610d1082610c83565b606082019050919050565b60006020820190508181036000830152610d3481610cf8565b9050919050565b610d4481610b05565b82525050565b6000606082019050610d5f6000830186610c17565b610d6c6020830185610c17565b610d796040830184610d3b565b949350505050565b60008115159050919050565b610d9681610d81565b8114610da157600080fd5b50565b600081519050610db381610d8d565b92915050565b600060208284031215610dcf57610dce610b00565b5b6000610ddd84828501610da4565b91505092915050565b7f4661696c656420746f2077697468647261770000000000000000000000000000600082015250565b6000610e1c601283610b68565b9150610e2782610de6565b602082019050919050565b60006020820190508181036000830152610e4b81610e0f565b9050919050565b7f4661696c656420746f20636c61696d0000000000000000000000000000000000600082015250565b6000610e88600f83610b68565b9150610e9382610e52565b602082019050919050565b60006020820190508181036000830152610eb781610e7b565b9050919050565b7f4e487b7100000000000000000000000000000000000000000000000000000000600052601160045260246000fd5b6000610ef882610b05565b9150610f0383610b05565b925082821015610f1657610f15610ebe565b5b82820390509291505056fea2646970667358221220745d366a3822d78b80586537af8466cf053072bae81de931bc4d51fd9acdd16864736f6c63430008090033",
  "immutableReferences": {},
  "source": "\r\npragma solidity 0.8.9;\r\n\r\nimport \"@openzeppelin/contracts/token/ERC20/IERC20.sol\";\r\nimport \"@openzeppelin/contracts/access/Ownable.sol\";\r\nimport \"@openzeppelin/contracts/utils/math/Math.sol\";\r\nimport \"@openzeppelin/contracts/utils/math/SafeMath.sol\";\r\n\r\ncontract Airdrop {\r\n\r\n    address ownerAddress;\r\n\r\n    mapping(address => uint) claimableTokens;\r\n    mapping(address => bool) isClaimables; //true: claimable\r\n  \r\n    IERC20 airdrop;\r\n\r\n    constructor(IERC20 _airdrop) {\r\n        airdrop = _airdrop;\r\n        ownerAddress = msg.sender; \r\n    }\r\n\r\n    function claimAssignedAmount() public {\r\n\r\n        require(isClaimables[msg.sender] != false, \"Already claim.\");\r\n\r\n        if (isClaimables[msg.sender] != true) {\r\n            claimableTokens[msg.sender] = airdrop.balanceOf(msg.sender);\r\n        }\r\n\r\n        // require(airdrop.balanceOf(ownerAddress) >= claimableTokens[msg.sender], \"There are't enough tokens\");\r\n\r\n        uint claimTokens = Math.min(claimableTokens[msg.sender], airdrop.balanceOf(ownerAddress));\r\n        \r\n        require(airdrop.transferFrom(ownerAddress, msg.sender, claimTokens), \"Failed to claim\");\r\n        claimableTokens[msg.sender] = 0;\r\n        isClaimables[msg.sender] = false;\r\n    }\r\n\r\n    function withdrawPortion(uint _portionTokens) public {\r\n\r\n        require(isClaimables[msg.sender] != false, \"Already claim.\");\r\n\r\n        if (isClaimables[msg.sender] != true) {\r\n            isClaimables[msg.sender] = true;\r\n            claimableTokens[msg.sender] = airdrop.balanceOf(msg.sender);\r\n        }\r\n        \r\n        require(claimableTokens[msg.sender] >= _portionTokens, \"The portion of user tokens should be equal or smaller than claimable tokens.\");\r\n        \r\n        uint withdrawTokens = Math.min(airdrop.balanceOf(ownerAddress), _portionTokens);\r\n\r\n        require(airdrop.transferFrom(ownerAddress, msg.sender, withdrawTokens), \"Failed to withdraw\");\r\n\r\n        claimableTokens[msg.sender] = SafeMath.sub(claimableTokens[msg.sender], withdrawTokens);\r\n\r\n        if (claimableTokens[msg.sender] == 0) {\r\n            isClaimables[msg.sender] = false;\r\n        }\r\n    }\r\n}",
  "sourcePath": "D:\\Work\\Contract-airdrops\\contracts\\Airdrop.sol",
  "compiler": {
    "name": "solc",
    "version": "0.8.9+commit.e5eed63a.Emscripten.clang"
  },
  "schemaVersion": "3.4.3",
  "updatedAt": "2022-09-22T13:05:40.614Z",
  "devdoc": {
    "kind": "dev",
    "methods": {},
    "version": 1
  },
  "userdoc": {
    "kind": "user",
    "methods": {},
    "version": 1
  }
}