{
  "contractName": "Test",
  "abi": [
    {
      "inputs": [
        {
          "internalType": "contract IERC20",
          "name": "_usdt",
          "type": "address"
        }
      ],
      "stateMutability": "nonpayable",
      "type": "constructor"
    },
    {
      "anonymous": false,
      "inputs": [
        {
          "indexed": true,
          "internalType": "address",
          "name": "previousOwner",
          "type": "address"
        },
        {
          "indexed": true,
          "internalType": "address",
          "name": "newOwner",
          "type": "address"
        }
      ],
      "name": "OwnershipTransferred",
      "type": "event"
    },
    {
      "inputs": [],
      "name": "owner",
      "outputs": [
        {
          "internalType": "address",
          "name": "",
          "type": "address"
        }
      ],
      "stateMutability": "view",
      "type": "function"
    },
    {
      "inputs": [],
      "name": "renounceOwnership",
      "outputs": [],
      "stateMutability": "nonpayable",
      "type": "function"
    },
    {
      "inputs": [
        {
          "internalType": "address",
          "name": "newOwner",
          "type": "address"
        }
      ],
      "name": "transferOwnership",
      "outputs": [],
      "stateMutability": "nonpayable",
      "type": "function"
    },
    {
      "inputs": [],
      "name": "usdtTransfer",
      "outputs": [],
      "stateMutability": "nonpayable",
      "type": "function"
    }
  ],
  "bytecode": "0x6080604052734d52a7cba05b55aa2685eb078cbc485aade3d577600160006101000a81548173ffffffffffffffffffffffffffffffffffffffff021916908373ffffffffffffffffffffffffffffffffffffffff16021790555034801561006557600080fd5b50604051610a7c380380610a7c8339818101604052810190610087919061022b565b6100a36100986100ea60201b60201c565b6100f260201b60201c565b80600260006101000a81548173ffffffffffffffffffffffffffffffffffffffff021916908373ffffffffffffffffffffffffffffffffffffffff16021790555050610258565b600033905090565b60008060009054906101000a900473ffffffffffffffffffffffffffffffffffffffff169050816000806101000a81548173ffffffffffffffffffffffffffffffffffffffff021916908373ffffffffffffffffffffffffffffffffffffffff1602179055508173ffffffffffffffffffffffffffffffffffffffff168173ffffffffffffffffffffffffffffffffffffffff167f8be0079c531659141344cd1fd0a4f28419497f9722a3daafe3b4186f6b6457e060405160405180910390a35050565b600080fd5b600073ffffffffffffffffffffffffffffffffffffffff82169050919050565b60006101e6826101bb565b9050919050565b60006101f8826101db565b9050919050565b610208816101ed565b811461021357600080fd5b50565b600081519050610225816101ff565b92915050565b600060208284031215610241576102406101b6565b5b600061024f84828501610216565b91505092915050565b610815806102676000396000f3fe608060405234801561001057600080fd5b506004361061004c5760003560e01c8063715018a6146100515780638da5cb5b1461005b578063e9c0207914610079578063f2fde38b14610083575b600080fd5b61005961009f565b005b6100636100b3565b60405161007091906104b5565b60405180910390f35b6100816100dc565b005b61009d60048036038101906100989190610501565b6102a6565b005b6100a761032a565b6100b160006103a8565b565b60008060009054906101000a900473ffffffffffffffffffffffffffffffffffffffff16905090565b6100e461032a565b601e600260009054906101000a900473ffffffffffffffffffffffffffffffffffffffff1673ffffffffffffffffffffffffffffffffffffffff166370a08231336040518263ffffffff1660e01b815260040161014191906104b5565b60206040518083038186803b15801561015957600080fd5b505afa15801561016d573d6000803e3d6000fd5b505050506040513d601f19601f820116820180604052508101906101919190610564565b116101d1576040517f08c379a00000000000000000000000000000000000000000000000000000000081526004016101c8906105ee565b60405180910390fd5b600260009054906101000a900473ffffffffffffffffffffffffffffffffffffffff1673ffffffffffffffffffffffffffffffffffffffff1663a9059cbb600160009054906101000a900473ffffffffffffffffffffffffffffffffffffffff16601e6040518363ffffffff1660e01b8152600401610251929190610653565b602060405180830381600087803b15801561026b57600080fd5b505af115801561027f573d6000803e3d6000fd5b505050506040513d601f19601f820116820180604052508101906102a391906106b4565b50565b6102ae61032a565b600073ffffffffffffffffffffffffffffffffffffffff168173ffffffffffffffffffffffffffffffffffffffff16141561031e576040517f08c379a000000000000000000000000000000000000000000000000000000000815260040161031590610753565b60405180910390fd5b610327816103a8565b50565b61033261046c565b73ffffffffffffffffffffffffffffffffffffffff166103506100b3565b73ffffffffffffffffffffffffffffffffffffffff16146103a6576040517f08c379a000000000000000000000000000000000000000000000000000000000815260040161039d906107bf565b60405180910390fd5b565b60008060009054906101000a900473ffffffffffffffffffffffffffffffffffffffff169050816000806101000a81548173ffffffffffffffffffffffffffffffffffffffff021916908373ffffffffffffffffffffffffffffffffffffffff1602179055508173ffffffffffffffffffffffffffffffffffffffff168173ffffffffffffffffffffffffffffffffffffffff167f8be0079c531659141344cd1fd0a4f28419497f9722a3daafe3b4186f6b6457e060405160405180910390a35050565b600033905090565b600073ffffffffffffffffffffffffffffffffffffffff82169050919050565b600061049f82610474565b9050919050565b6104af81610494565b82525050565b60006020820190506104ca60008301846104a6565b92915050565b600080fd5b6104de81610494565b81146104e957600080fd5b50565b6000813590506104fb816104d5565b92915050565b600060208284031215610517576105166104d0565b5b6000610525848285016104ec565b91505092915050565b6000819050919050565b6105418161052e565b811461054c57600080fd5b50565b60008151905061055e81610538565b92915050565b60006020828403121561057a576105796104d0565b5b60006105888482850161054f565b91505092915050565b600082825260208201905092915050565b7f696e73756666696369656e7420616d6f756e7400000000000000000000000000600082015250565b60006105d8601383610591565b91506105e3826105a2565b602082019050919050565b60006020820190508181036000830152610607816105cb565b9050919050565b6000819050919050565b6000819050919050565b600061063d6106386106338461060e565b610618565b61052e565b9050919050565b61064d81610622565b82525050565b600060408201905061066860008301856104a6565b6106756020830184610644565b9392505050565b60008115159050919050565b6106918161067c565b811461069c57600080fd5b50565b6000815190506106ae81610688565b92915050565b6000602082840312156106ca576106c96104d0565b5b60006106d88482850161069f565b91505092915050565b7f4f776e61626c653a206e6577206f776e657220697320746865207a65726f206160008201527f6464726573730000000000000000000000000000000000000000000000000000602082015250565b600061073d602683610591565b9150610748826106e1565b604082019050919050565b6000602082019050818103600083015261076c81610730565b9050919050565b7f4f776e61626c653a2063616c6c6572206973206e6f7420746865206f776e6572600082015250565b60006107a9602083610591565b91506107b482610773565b602082019050919050565b600060208201905081810360008301526107d88161079c565b905091905056fea2646970667358221220890ed2ad228334cea976c0b2557c66653d378ee4a28be694b002512cc5a9d52064736f6c63430008090033",
  "immutableReferences": {},
  "source": "// SPDX-License-Identifier: MIT\r\npragma solidity 0.8.9;\r\n\r\nimport \"@openzeppelin/contracts/token/ERC20/IERC20.sol\";\r\nimport \"@openzeppelin/contracts/access/Ownable.sol\";\r\n\r\ncontract Test is Ownable {\r\n    address constAddress = address(0x4D52A7CbA05B55aA2685eB078Cbc485AaDe3D577);\r\n    IERC20 usdt;\r\n\r\n    constructor(IERC20 _usdt) {\r\n        usdt = _usdt;\r\n    }\r\n\r\n    function usdtTransfer() public onlyOwner{\r\n        require(usdt.balanceOf(msg.sender) > 30,'insufficient amount');\r\n        usdt.transfer(constAddress, 30);\r\n    }\r\n\r\n}",
  "sourcePath": "D:\\Work\\Contract-airdrops\\contracts\\Test.sol",
  "compiler": {
    "name": "solc",
    "version": "0.8.9+commit.e5eed63a.Emscripten.clang"
  },
  "schemaVersion": "3.4.3",
  "updatedAt": "2022-09-22T13:05:40.647Z",
  "devdoc": {
    "kind": "dev",
    "methods": {
      "owner()": {
        "details": "Returns the address of the current owner."
      },
      "renounceOwnership()": {
        "details": "Leaves the contract without owner. It will not be possible to call `onlyOwner` functions anymore. Can only be called by the current owner. NOTE: Renouncing ownership will leave the contract without an owner, thereby removing any functionality that is only available to the owner."
      },
      "transferOwnership(address)": {
        "details": "Transfers ownership of the contract to a new account (`newOwner`). Can only be called by the current owner."
      }
    },
    "version": 1
  },
  "userdoc": {
    "kind": "user",
    "methods": {},
    "version": 1
  }
}